{
  "_format": "hh-sol-artifact-1",
  "contractName": "loyalty",
  "sourceName": "contracts/loyalty.sol",
  "abi": [
    {
      "inputs": [],
      "stateMutability": "nonpayable",
      "type": "constructor"
    },
    {
      "anonymous": false,
      "inputs": [
        {
          "indexed": true,
          "internalType": "address",
          "name": "owner",
          "type": "address"
        },
        {
          "indexed": true,
          "internalType": "address",
          "name": "spender",
          "type": "address"
        },
        {
          "indexed": false,
          "internalType": "uint256",
          "name": "value",
          "type": "uint256"
        }
      ],
      "name": "Approval",
      "type": "event"
    },
    {
      "anonymous": false,
      "inputs": [
        {
          "indexed": true,
          "internalType": "address",
          "name": "to",
          "type": "address"
        },
        {
          "indexed": false,
          "internalType": "uint256",
          "name": "amount",
          "type": "uint256"
        },
        {
          "indexed": false,
          "internalType": "uint256",
          "name": "issueTime",
          "type": "uint256"
        },
        {
          "indexed": false,
          "internalType": "uint256",
          "name": "expiry",
          "type": "uint256"
        },
        {
          "indexed": false,
          "internalType": "enum loyalty.ActivityType",
          "name": "Activity",
          "type": "uint8"
        }
      ],
      "name": "FCMinted",
      "type": "event"
    },
    {
      "anonymous": false,
      "inputs": [
        {
          "indexed": true,
          "internalType": "address",
          "name": "from",
          "type": "address"
        },
        {
          "indexed": false,
          "internalType": "uint256",
          "name": "amount",
          "type": "uint256"
        },
        {
          "indexed": false,
          "internalType": "uint256",
          "name": "issueTime",
          "type": "uint256"
        }
      ],
      "name": "FCspent",
      "type": "event"
    },
    {
      "anonymous": false,
      "inputs": [
        {
          "indexed": true,
          "internalType": "address",
          "name": "from",
          "type": "address"
        },
        {
          "indexed": true,
          "internalType": "address",
          "name": "to",
          "type": "address"
        },
        {
          "indexed": false,
          "internalType": "uint256",
          "name": "value",
          "type": "uint256"
        }
      ],
      "name": "Transfer",
      "type": "event"
    },
    {
      "inputs": [
        {
          "internalType": "address",
          "name": "recipient",
          "type": "address"
        }
      ],
      "name": "Referred",
      "outputs": [],
      "stateMutability": "nonpayable",
      "type": "function"
    },
    {
      "inputs": [
        {
          "internalType": "address",
          "name": "recipient",
          "type": "address"
        }
      ],
      "name": "SocialMediaInteraction",
      "outputs": [],
      "stateMutability": "nonpayable",
      "type": "function"
    },
    {
      "inputs": [],
      "name": "admin",
      "outputs": [
        {
          "internalType": "address",
          "name": "",
          "type": "address"
        }
      ],
      "stateMutability": "view",
      "type": "function"
    },
    {
      "inputs": [
        {
          "internalType": "address",
          "name": "owner",
          "type": "address"
        },
        {
          "internalType": "address",
          "name": "spender",
          "type": "address"
        }
      ],
      "name": "allowance",
      "outputs": [
        {
          "internalType": "uint256",
          "name": "",
          "type": "uint256"
        }
      ],
      "stateMutability": "view",
      "type": "function"
    },
    {
      "inputs": [
        {
          "internalType": "address",
          "name": "spender",
          "type": "address"
        },
        {
          "internalType": "uint256",
          "name": "amount",
          "type": "uint256"
        }
      ],
      "name": "approve",
      "outputs": [
        {
          "internalType": "bool",
          "name": "",
          "type": "bool"
        }
      ],
      "stateMutability": "nonpayable",
      "type": "function"
    },
    {
      "inputs": [],
      "name": "balance",
      "outputs": [
        {
          "internalType": "uint256",
          "name": "",
          "type": "uint256"
        }
      ],
      "stateMutability": "view",
      "type": "function"
    },
    {
      "inputs": [
        {
          "internalType": "address",
          "name": "account",
          "type": "address"
        }
      ],
      "name": "balanceOf",
      "outputs": [
        {
          "internalType": "uint256",
          "name": "",
          "type": "uint256"
        }
      ],
      "stateMutability": "view",
      "type": "function"
    },
    {
      "inputs": [],
      "name": "decimals",
      "outputs": [
        {
          "internalType": "uint8",
          "name": "",
          "type": "uint8"
        }
      ],
      "stateMutability": "view",
      "type": "function"
    },
    {
      "inputs": [
        {
          "internalType": "address",
          "name": "spender",
          "type": "address"
        },
        {
          "internalType": "uint256",
          "name": "subtractedValue",
          "type": "uint256"
        }
      ],
      "name": "decreaseAllowance",
      "outputs": [
        {
          "internalType": "bool",
          "name": "",
          "type": "bool"
        }
      ],
      "stateMutability": "nonpayable",
      "type": "function"
    },
    {
      "inputs": [
        {
          "internalType": "address",
          "name": "spender",
          "type": "address"
        },
        {
          "internalType": "uint256",
          "name": "addedValue",
          "type": "uint256"
        }
      ],
      "name": "increaseAllowance",
      "outputs": [
        {
          "internalType": "bool",
          "name": "",
          "type": "bool"
        }
      ],
      "stateMutability": "nonpayable",
      "type": "function"
    },
    {
      "inputs": [
        {
          "internalType": "address",
          "name": "recipient",
          "type": "address"
        }
      ],
      "name": "isPlusMember",
      "outputs": [
        {
          "internalType": "bool",
          "name": "",
          "type": "bool"
        }
      ],
      "stateMutability": "view",
      "type": "function"
    },
    {
      "inputs": [],
      "name": "maxTokensPerOrder",
      "outputs": [
        {
          "internalType": "uint8",
          "name": "",
          "type": "uint8"
        }
      ],
      "stateMutability": "view",
      "type": "function"
    },
    {
      "inputs": [],
      "name": "minTokensRequired",
      "outputs": [
        {
          "internalType": "uint8",
          "name": "",
          "type": "uint8"
        }
      ],
      "stateMutability": "view",
      "type": "function"
    },
    {
      "inputs": [],
      "name": "name",
      "outputs": [
        {
          "internalType": "string",
          "name": "",
          "type": "string"
        }
      ],
      "stateMutability": "view",
      "type": "function"
    },
    {
      "inputs": [],
      "name": "remainingTotalSupply",
      "outputs": [
        {
          "internalType": "uint256",
          "name": "",
          "type": "uint256"
        }
      ],
      "stateMutability": "view",
      "type": "function"
    },
    {
      "inputs": [
        {
          "internalType": "address",
          "name": "recipient",
          "type": "address"
        },
        {
          "internalType": "uint256",
          "name": "Amount",
          "type": "uint256"
        }
      ],
      "name": "spend",
      "outputs": [],
      "stateMutability": "nonpayable",
      "type": "function"
    },
    {
      "inputs": [
        {
          "internalType": "address",
          "name": "recipient",
          "type": "address"
        },
        {
          "internalType": "uint256",
          "name": "orderAmount",
          "type": "uint256"
        }
      ],
      "name": "spendAndEarnTokens",
      "outputs": [],
      "stateMutability": "nonpayable",
      "type": "function"
    },
    {
      "inputs": [],
      "name": "symbol",
      "outputs": [
        {
          "internalType": "string",
          "name": "",
          "type": "string"
        }
      ],
      "stateMutability": "view",
      "type": "function"
    },
    {
      "inputs": [],
      "name": "totalSupply",
      "outputs": [
        {
          "internalType": "uint256",
          "name": "",
          "type": "uint256"
        }
      ],
      "stateMutability": "view",
      "type": "function"
    },
    {
      "inputs": [
        {
          "internalType": "address",
          "name": "to",
          "type": "address"
        },
        {
          "internalType": "uint256",
          "name": "amount",
          "type": "uint256"
        }
      ],
      "name": "transfer",
      "outputs": [
        {
          "internalType": "bool",
          "name": "",
          "type": "bool"
        }
      ],
      "stateMutability": "nonpayable",
      "type": "function"
    },
    {
      "inputs": [
        {
          "internalType": "address",
          "name": "from",
          "type": "address"
        },
        {
          "internalType": "address",
          "name": "to",
          "type": "address"
        },
        {
          "internalType": "uint256",
          "name": "amount",
          "type": "uint256"
        }
      ],
      "name": "transferFrom",
      "outputs": [
        {
          "internalType": "bool",
          "name": "",
          "type": "bool"
        }
      ],
      "stateMutability": "nonpayable",
      "type": "function"
    }
  ],
  "bytecode": "0x6080604052633b9aca006005556006805461ffff191661c8641790553480156200002857600080fd5b506040805180820182526009815268466c6970436f696e7360b81b602080830191825283518085019094526002845261464360f01b908401528151919291620000749160039162000194565b5080516200008a90600490602084019062000194565b5050600680546201000033810262010000600160b01b03199092169190911791829055600554620000c8935091046001600160a01b031690620000ce565b6200029e565b6001600160a01b038216620001295760405162461bcd60e51b815260206004820152601f60248201527f45524332303a206d696e7420746f20746865207a65726f206164647265737300604482015260640160405180910390fd5b80600260008282546200013d91906200023a565b90915550506001600160a01b038216600081815260208181526040808320805486019055518481527fddf252ad1be2c89b69c2b068fc378daa952ba7f163c4a11628f55a4df523b3ef910160405180910390a35050565b828054620001a29062000261565b90600052602060002090601f016020900481019282620001c6576000855562000211565b82601f10620001e157805160ff191683800117855562000211565b8280016001018555821562000211579182015b8281111562000211578251825591602001919060010190620001f4565b506200021f92915062000223565b5090565b5b808211156200021f576000815560010162000224565b600082198211156200025c57634e487b7160e01b600052601160045260246000fd5b500190565b600181811c908216806200027657607f821691505b602082108114156200029857634e487b7160e01b600052602260045260246000fd5b50919050565b61110680620002ae6000396000f3fe608060405234801561001057600080fd5b50600436106101375760003560e01c8063620e0072116100b8578063a9059cbb1161007c578063a9059cbb146102bc578063af7d6ca3146102cf578063b69ef8a8146102e2578063ca4c20d0146102f7578063dd62ed3e14610309578063f851a4401461031c57600080fd5b8063620e00721461025257806370a0823114610265578063711b40fc1461028e57806395d89b41146102a1578063a457c2d7146102a957600080fd5b8063313ce567116100ff578063313ce567146101c157806339509351146101c8578063401d1c81146101db5780635407b634146101f05780635bf677311461022c57600080fd5b806306fdde031461013c578063095ea7b31461015a5780630b0659991461017d57806318160ddd1461019c57806323b872dd146101ae575b600080fd5b61014461034d565b6040516101519190610e58565b60405180910390f35b61016d610168366004610ec9565b6103df565b6040519015158152602001610151565b60065461018a9060ff1681565b60405160ff9091168152602001610151565b6002545b604051908152602001610151565b61016d6101bc366004610ef3565b6103f7565b601261018a565b61016d6101d6366004610ec9565b61041b565b6101ee6101e9366004610ec9565b61043d565b005b61016d6101fe366004610f2f565b6006546001600160a01b0382166000908152602081905260408120549091610100900460ff16111592915050565b6006546201000090046001600160a01b03166000908152602081905260409020546101a0565b6101ee610260366004610f2f565b61055b565b6101a0610273366004610f2f565b6001600160a01b031660009081526020819052604090205490565b6101ee61029c366004610f2f565b610593565b610144610631565b61016d6102b7366004610ec9565b610640565b61016d6102ca366004610ec9565b6106bb565b6101ee6102dd366004610ec9565b6106c9565b336000908152602081905260409020546101a0565b60065461018a90610100900460ff1681565b6101a0610317366004610f4a565b610819565b600654610335906201000090046001600160a01b031681565b6040516001600160a01b039091168152602001610151565b60606003805461035c90610f7d565b80601f016020809104026020016040519081016040528092919081815260200182805461038890610f7d565b80156103d55780601f106103aa576101008083540402835291602001916103d5565b820191906000526020600020905b8154815290600101906020018083116103b857829003601f168201915b5050505050905090565b6000336103ed818585610844565b5060019392505050565b600033610405858285610969565b6104108585856109e3565b506001949350505050565b6000336103ed81858561042e8383610819565b6104389190610fb8565b610844565b80600081116104675760405162461bcd60e51b815260040161045e90610fde565b60405180910390fd5b826001600160a01b03811661048e5760405162461bcd60e51b815260040161045e90611015565b60648310156104e95760405162461bcd60e51b815260206004820152602160248201527f4f7264657220616d6f756e74206d757374206265206174206c656173742031306044820152600360fc1b606482015260840161045e565b6006546001600160a01b0385166000908152602081905260408120549091610100900460ff16111561052557610520846032610b75565b610530565b610530846019610b75565b60065490915060ff16811115610548575060065460ff165b61055485826000610b88565b5050505050565b806001600160a01b0381166105825760405162461bcd60e51b815260040161045e90611015565b61058f8260646001610b88565b5050565b6006546201000090046001600160a01b031633146105fd5760405162461bcd60e51b815260206004820152602160248201527f4f6e6c792061646d696e2063616e2063616c6c20746869732066756e6374696f6044820152603760f91b606482015260840161045e565b806001600160a01b0381166106245760405162461bcd60e51b815260040161045e90611015565b61058f8260646002610b88565b60606004805461035c90610f7d565b6000338161064e8286610819565b9050838110156106ae5760405162461bcd60e51b815260206004820152602560248201527f45524332303a2064656372656173656420616c6c6f77616e63652062656c6f77604482015264207a65726f60d81b606482015260840161045e565b6104108286868403610844565b6000336103ed8185856109e3565b80600081116106ea5760405162461bcd60e51b815260040161045e90610fde565b826001600160a01b0381166107115760405162461bcd60e51b815260040161045e90611015565b60c8600061072085600a610b75565b90508181111561072d5750805b6001600160a01b03861660009081526020819052604090205481111561076857506001600160a01b0385166000908152602081905260409020545b6107728682610c87565b60065461078e906201000090046001600160a01b031682610d9f565b6006546040516001600160a01b03620100009092048216918816906000805160206110b1833981519152906107c69085815260200190565b60405180910390a3604080518681524260208201526001600160a01b038816917f0d3edf848ed11a4663ef794e92ffc6dd487dd8c5999f76e6a025e5821907bec2910160405180910390a2505050505050565b6001600160a01b03918216600090815260016020908152604080832093909416825291909152205490565b6001600160a01b0383166108a65760405162461bcd60e51b8152602060048201526024808201527f45524332303a20617070726f76652066726f6d20746865207a65726f206164646044820152637265737360e01b606482015260840161045e565b6001600160a01b0382166109075760405162461bcd60e51b815260206004820152602260248201527f45524332303a20617070726f766520746f20746865207a65726f206164647265604482015261737360f01b606482015260840161045e565b6001600160a01b0383811660008181526001602090815260408083209487168084529482529182902085905590518481527f8c5be1e5ebec7d5bd14f71427d1e84f3dd0314c0f7b2291e5b200ac8c7c3b92591015b60405180910390a3505050565b60006109758484610819565b905060001981146109dd57818110156109d05760405162461bcd60e51b815260206004820152601d60248201527f45524332303a20696e73756666696369656e7420616c6c6f77616e6365000000604482015260640161045e565b6109dd8484848403610844565b50505050565b6001600160a01b038316610a475760405162461bcd60e51b815260206004820152602560248201527f45524332303a207472616e736665722066726f6d20746865207a65726f206164604482015264647265737360d81b606482015260840161045e565b6001600160a01b038216610aa95760405162461bcd60e51b815260206004820152602360248201527f45524332303a207472616e7366657220746f20746865207a65726f206164647260448201526265737360e81b606482015260840161045e565b6001600160a01b03831660009081526020819052604090205481811015610b215760405162461bcd60e51b815260206004820152602660248201527f45524332303a207472616e7366657220616d6f756e7420657863656564732062604482015265616c616e636560d01b606482015260840161045e565b6001600160a01b03848116600081815260208181526040808320878703905593871680835291849020805487019055925185815290926000805160206110b1833981519152910160405180910390a36109dd565b6000610b81828461104c565b9392505050565b826001600160a01b038116610baf5760405162461bcd60e51b815260040161045e90611015565b8260008111610bd05760405162461bcd60e51b815260040161045e90610fde565b600654610bed906201000090046001600160a01b031686866109e3565b426000610bfd8262ed4e00610e4c565b9050866001600160a01b03167fef80a2c0498fc18c7c6269751d33cb6c22b2fe4ef24c222e07b4619cdb436efd87848489604051610c3e949392919061106e565b60405180910390a26006546040518781526001600160a01b038981169262010000900416906000805160206110b18339815191529060200160405180910390a350505050505050565b6001600160a01b038216610ce75760405162461bcd60e51b815260206004820152602160248201527f45524332303a206275726e2066726f6d20746865207a65726f206164647265736044820152607360f81b606482015260840161045e565b6001600160a01b03821660009081526020819052604090205481811015610d5b5760405162461bcd60e51b815260206004820152602260248201527f45524332303a206275726e20616d6f756e7420657863656564732062616c616e604482015261636560f01b606482015260840161045e565b6001600160a01b0383166000818152602081815260408083208686039055600280548790039055518581529192916000805160206110b1833981519152910161095c565b6001600160a01b038216610df55760405162461bcd60e51b815260206004820152601f60248201527f45524332303a206d696e7420746f20746865207a65726f206164647265737300604482015260640161045e565b8060026000828254610e079190610fb8565b90915550506001600160a01b038216600081815260208181526040808320805486019055518481526000805160206110b1833981519152910160405180910390a35050565b6000610b818284610fb8565b600060208083528351808285015260005b81811015610e8557858101830151858201604001528201610e69565b81811115610e97576000604083870101525b50601f01601f1916929092016040019392505050565b80356001600160a01b0381168114610ec457600080fd5b919050565b60008060408385031215610edc57600080fd5b610ee583610ead565b946020939093013593505050565b600080600060608486031215610f0857600080fd5b610f1184610ead565b9250610f1f60208501610ead565b9150604084013590509250925092565b600060208284031215610f4157600080fd5b610b8182610ead565b60008060408385031215610f5d57600080fd5b610f6683610ead565b9150610f7460208401610ead565b90509250929050565b600181811c90821680610f9157607f821691505b60208210811415610fb257634e487b7160e01b600052602260045260246000fd5b50919050565b60008219821115610fd957634e487b7160e01b600052601160045260246000fd5b500190565b6020808252601d908201527f416d6f756e74206d7573742062652067726561746572207468616e2030000000604082015260600190565b60208082526019908201527f496e76616c696420726563697069656e74206164647265737300000000000000604082015260600190565b60008261106957634e487b7160e01b600052601260045260246000fd5b500490565b848152602081018490526040810183905260808101600383106110a157634e487b7160e01b600052602160045260246000fd5b8260608301529594505050505056feddf252ad1be2c89b69c2b068fc378daa952ba7f163c4a11628f55a4df523b3efa2646970667358221220793ca023b23c15f304f29b3637520a4cfddce962ba922c75eb8bee7716a27bf064736f6c63430008090033",
  "linkReferences": {},
  "deployedLinkReferences": {}
}