{
  "_format": "hh-sol-artifact-1",
  "contractName": "loyalty",
  "sourceName": "contracts/loyalty.sol",
  "abi": [
    {
      "inputs": [],
      "stateMutability": "nonpayable",
      "type": "constructor"
    },
    {
      "anonymous": false,
      "inputs": [
        {
          "indexed": true,
          "internalType": "address",
          "name": "owner",
          "type": "address"
        },
        {
          "indexed": true,
          "internalType": "address",
          "name": "spender",
          "type": "address"
        },
        {
          "indexed": false,
          "internalType": "uint256",
          "name": "value",
          "type": "uint256"
        }
      ],
      "name": "Approval",
      "type": "event"
    },
    {
      "anonymous": false,
      "inputs": [
        {
          "indexed": true,
          "internalType": "address",
          "name": "from",
          "type": "address"
        },
        {
          "indexed": true,
          "internalType": "address",
          "name": "to",
          "type": "address"
        },
        {
          "indexed": false,
          "internalType": "uint256",
          "name": "value",
          "type": "uint256"
        }
      ],
      "name": "Transfer",
      "type": "event"
    },
    {
      "inputs": [
        {
          "internalType": "address",
          "name": "recipient",
          "type": "address"
        }
      ],
      "name": "Referred",
      "outputs": [],
      "stateMutability": "nonpayable",
      "type": "function"
    },
    {
      "inputs": [
        {
          "internalType": "address",
          "name": "recipient",
          "type": "address"
        }
      ],
      "name": "SocialMediaInteraction",
      "outputs": [],
      "stateMutability": "nonpayable",
      "type": "function"
    },
    {
      "inputs": [],
      "name": "admin",
      "outputs": [
        {
          "internalType": "address",
          "name": "",
          "type": "address"
        }
      ],
      "stateMutability": "view",
      "type": "function"
    },
    {
      "inputs": [
        {
          "internalType": "address",
          "name": "owner",
          "type": "address"
        },
        {
          "internalType": "address",
          "name": "spender",
          "type": "address"
        }
      ],
      "name": "allowance",
      "outputs": [
        {
          "internalType": "uint256",
          "name": "",
          "type": "uint256"
        }
      ],
      "stateMutability": "view",
      "type": "function"
    },
    {
      "inputs": [
        {
          "internalType": "address",
          "name": "spender",
          "type": "address"
        },
        {
          "internalType": "uint256",
          "name": "amount",
          "type": "uint256"
        }
      ],
      "name": "approve",
      "outputs": [
        {
          "internalType": "bool",
          "name": "",
          "type": "bool"
        }
      ],
      "stateMutability": "nonpayable",
      "type": "function"
    },
    {
      "inputs": [],
      "name": "balance",
      "outputs": [
        {
          "internalType": "uint256",
          "name": "",
          "type": "uint256"
        }
      ],
      "stateMutability": "view",
      "type": "function"
    },
    {
      "inputs": [
        {
          "internalType": "address",
          "name": "account",
          "type": "address"
        }
      ],
      "name": "balanceOf",
      "outputs": [
        {
          "internalType": "uint256",
          "name": "",
          "type": "uint256"
        }
      ],
      "stateMutability": "view",
      "type": "function"
    },
    {
      "inputs": [
        {
          "internalType": "address",
          "name": "recipient",
          "type": "address"
        },
        {
          "internalType": "uint256",
          "name": "Amount",
          "type": "uint256"
        }
      ],
      "name": "checkFc",
      "outputs": [
        {
          "internalType": "uint256",
          "name": "",
          "type": "uint256"
        }
      ],
      "stateMutability": "view",
      "type": "function"
    },
    {
      "inputs": [],
      "name": "decimals",
      "outputs": [
        {
          "internalType": "uint8",
          "name": "",
          "type": "uint8"
        }
      ],
      "stateMutability": "view",
      "type": "function"
    },
    {
      "inputs": [
        {
          "internalType": "address",
          "name": "spender",
          "type": "address"
        },
        {
          "internalType": "uint256",
          "name": "subtractedValue",
          "type": "uint256"
        }
      ],
      "name": "decreaseAllowance",
      "outputs": [
        {
          "internalType": "bool",
          "name": "",
          "type": "bool"
        }
      ],
      "stateMutability": "nonpayable",
      "type": "function"
    },
    {
      "inputs": [],
      "name": "getfc",
      "outputs": [
        {
          "components": [
            {
              "internalType": "address",
              "name": "from",
              "type": "address"
            },
            {
              "internalType": "address",
              "name": "to",
              "type": "address"
            },
            {
              "internalType": "uint256",
              "name": "amount",
              "type": "uint256"
            },
            {
              "internalType": "uint256",
              "name": "issueTime",
              "type": "uint256"
            },
            {
              "internalType": "string",
              "name": "Activity",
              "type": "string"
            }
          ],
          "internalType": "struct loyalty.FCMinted[]",
          "name": "",
          "type": "tuple[]"
        }
      ],
      "stateMutability": "view",
      "type": "function"
    },
    {
      "inputs": [
        {
          "internalType": "address",
          "name": "spender",
          "type": "address"
        },
        {
          "internalType": "uint256",
          "name": "addedValue",
          "type": "uint256"
        }
      ],
      "name": "increaseAllowance",
      "outputs": [
        {
          "internalType": "bool",
          "name": "",
          "type": "bool"
        }
      ],
      "stateMutability": "nonpayable",
      "type": "function"
    },
    {
      "inputs": [
        {
          "internalType": "address",
          "name": "recipient",
          "type": "address"
        }
      ],
      "name": "isPlusMember",
      "outputs": [
        {
          "internalType": "bool",
          "name": "",
          "type": "bool"
        }
      ],
      "stateMutability": "view",
      "type": "function"
    },
    {
      "inputs": [],
      "name": "maxTokensPerOrder",
      "outputs": [
        {
          "internalType": "uint8",
          "name": "",
          "type": "uint8"
        }
      ],
      "stateMutability": "view",
      "type": "function"
    },
    {
      "inputs": [],
      "name": "minTokensRequired",
      "outputs": [
        {
          "internalType": "uint8",
          "name": "",
          "type": "uint8"
        }
      ],
      "stateMutability": "view",
      "type": "function"
    },
    {
      "inputs": [],
      "name": "name",
      "outputs": [
        {
          "internalType": "string",
          "name": "",
          "type": "string"
        }
      ],
      "stateMutability": "view",
      "type": "function"
    },
    {
      "inputs": [],
      "name": "remainingTotalSupply",
      "outputs": [
        {
          "internalType": "uint256",
          "name": "",
          "type": "uint256"
        }
      ],
      "stateMutability": "view",
      "type": "function"
    },
    {
      "inputs": [
        {
          "internalType": "address",
          "name": "recipient",
          "type": "address"
        },
        {
          "internalType": "uint256",
          "name": "Amount",
          "type": "uint256"
        }
      ],
      "name": "spend",
      "outputs": [],
      "stateMutability": "nonpayable",
      "type": "function"
    },
    {
      "inputs": [
        {
          "internalType": "address",
          "name": "recipient",
          "type": "address"
        },
        {
          "internalType": "uint256",
          "name": "orderAmount",
          "type": "uint256"
        }
      ],
      "name": "spendAndEarnTokens",
      "outputs": [],
      "stateMutability": "nonpayable",
      "type": "function"
    },
    {
      "inputs": [],
      "name": "symbol",
      "outputs": [
        {
          "internalType": "string",
          "name": "",
          "type": "string"
        }
      ],
      "stateMutability": "view",
      "type": "function"
    },
    {
      "inputs": [],
      "name": "totalSupply",
      "outputs": [
        {
          "internalType": "uint256",
          "name": "",
          "type": "uint256"
        }
      ],
      "stateMutability": "view",
      "type": "function"
    },
    {
      "inputs": [
        {
          "internalType": "address",
          "name": "to",
          "type": "address"
        },
        {
          "internalType": "uint256",
          "name": "amount",
          "type": "uint256"
        }
      ],
      "name": "transfer",
      "outputs": [
        {
          "internalType": "bool",
          "name": "",
          "type": "bool"
        }
      ],
      "stateMutability": "nonpayable",
      "type": "function"
    },
    {
      "inputs": [
        {
          "internalType": "address",
          "name": "from",
          "type": "address"
        },
        {
          "internalType": "address",
          "name": "to",
          "type": "address"
        },
        {
          "internalType": "uint256",
          "name": "amount",
          "type": "uint256"
        }
      ],
      "name": "transferFrom",
      "outputs": [
        {
          "internalType": "bool",
          "name": "",
          "type": "bool"
        }
      ],
      "stateMutability": "nonpayable",
      "type": "function"
    }
  ],
  "bytecode": "0x6080604052633b9aca006005556064600660006101000a81548160ff021916908360ff16021790555060c8600660016101000a81548160ff021916908360ff1602179055503480156200005157600080fd5b506040518060400160405280600981526020017f466c6970436f696e7300000000000000000000000000000000000000000000008152506040518060400160405280600281526020017f46430000000000000000000000000000000000000000000000000000000000008152508160039080519060200190620000d6929190620002e7565b508060049080519060200190620000ef929190620002e7565b50505033600660026101000a81548173ffffffffffffffffffffffffffffffffffffffff021916908373ffffffffffffffffffffffffffffffffffffffff16021790555062000169600660029054906101000a900473ffffffffffffffffffffffffffffffffffffffff166005546200016f60201b60201c565b62000543565b600073ffffffffffffffffffffffffffffffffffffffff168273ffffffffffffffffffffffffffffffffffffffff161415620001e2576040517f08c379a0000000000000000000000000000000000000000000000000000000008152600401620001d990620003f8565b60405180910390fd5b620001f660008383620002dd60201b60201c565b80600260008282546200020a919062000453565b92505081905550806000808473ffffffffffffffffffffffffffffffffffffffff1673ffffffffffffffffffffffffffffffffffffffff168152602001908152602001600020600082825401925050819055508173ffffffffffffffffffffffffffffffffffffffff16600073ffffffffffffffffffffffffffffffffffffffff167fddf252ad1be2c89b69c2b068fc378daa952ba7f163c4a11628f55a4df523b3ef83604051620002bd9190620004c1565b60405180910390a3620002d960008383620002e260201b60201c565b5050565b505050565b505050565b828054620002f5906200050d565b90600052602060002090601f01602090048101928262000319576000855562000365565b82601f106200033457805160ff191683800117855562000365565b8280016001018555821562000365579182015b828111156200036457825182559160200191906001019062000347565b5b50905062000374919062000378565b5090565b5b808211156200039357600081600090555060010162000379565b5090565b600082825260208201905092915050565b7f45524332303a206d696e7420746f20746865207a65726f206164647265737300600082015250565b6000620003e0601f8362000397565b9150620003ed82620003a8565b602082019050919050565b600060208201905081810360008301526200041381620003d1565b9050919050565b6000819050919050565b7f4e487b7100000000000000000000000000000000000000000000000000000000600052601160045260246000fd5b600062000460826200041a565b91506200046d836200041a565b9250827fffffffffffffffffffffffffffffffffffffffffffffffffffffffffffffffff03821115620004a557620004a462000424565b5b828201905092915050565b620004bb816200041a565b82525050565b6000602082019050620004d86000830184620004b0565b92915050565b7f4e487b7100000000000000000000000000000000000000000000000000000000600052602260045260246000fd5b600060028204905060018216806200052657607f821691505b602082108114156200053d576200053c620004de565b5b50919050565b612b6380620005536000396000f3fe608060405234801561001057600080fd5b506004361061014d5760003560e01c806370a08231116100c3578063af7d6ca31161007c578063af7d6ca3146103c8578063b69ef8a8146103e4578063ca4c20d014610402578063d2ed6a2214610420578063dd62ed3e14610450578063f851a440146104805761014d565b806370a08231146102e0578063711b40fc14610310578063865a4c0c1461032c57806395d89b411461034a578063a457c2d714610368578063a9059cbb146103985761014d565b8063313ce56711610115578063313ce5671461020c578063395093511461022a578063401d1c811461025a5780635407b634146102765780635bf67731146102a6578063620e0072146102c45761014d565b806306fdde0314610152578063095ea7b3146101705780630b065999146101a057806318160ddd146101be57806323b872dd146101dc575b600080fd5b61015a61049e565b6040516101679190611e45565b60405180910390f35b61018a60048036038101906101859190611f00565b610530565b6040516101979190611f5b565b60405180910390f35b6101a8610553565b6040516101b59190611f92565b60405180910390f35b6101c6610566565b6040516101d39190611fbc565b60405180910390f35b6101f660048036038101906101f19190611fd7565b610570565b6040516102039190611f5b565b60405180910390f35b61021461059f565b6040516102219190611f92565b60405180910390f35b610244600480360381019061023f9190611f00565b6105a8565b6040516102519190611f5b565b60405180910390f35b610274600480360381019061026f9190611f00565b6105df565b005b610290600480360381019061028b919061202a565b61078e565b60405161029d9190611f5b565b60405180910390f35b6102ae6107b5565b6040516102bb9190611fbc565b60405180910390f35b6102de60048036038101906102d9919061202a565b6107e7565b005b6102fa60048036038101906102f5919061202a565b61089d565b6040516103079190611fbc565b60405180910390f35b61032a6004803603810190610325919061202a565b6108e5565b005b610334610a2b565b60405161034191906121f7565b60405180910390f35b610352610bdc565b60405161035f9190611e45565b60405180910390f35b610382600480360381019061037d9190611f00565b610c6e565b60405161038f9190611f5b565b60405180910390f35b6103b260048036038101906103ad9190611f00565b610ce5565b6040516103bf9190611f5b565b60405180910390f35b6103e260048036038101906103dd9190611f00565b610d08565b005b6103ec61105e565b6040516103f99190611fbc565b60405180910390f35b61040a61106e565b6040516104179190611f92565b60405180910390f35b61043a60048036038101906104359190611f00565b611081565b6040516104479190611fbc565b60405180910390f35b61046a60048036038101906104659190612219565b6111b4565b6040516104779190611fbc565b60405180910390f35b61048861123b565b6040516104959190612268565b60405180910390f35b6060600380546104ad906122b2565b80601f01602080910402602001604051908101604052809291908181526020018280546104d9906122b2565b80156105265780601f106104fb57610100808354040283529160200191610526565b820191906000526020600020905b81548152906001019060200180831161050957829003601f168201915b5050505050905090565b60008061053b611261565b9050610548818585611269565b600191505092915050565b600660009054906101000a900460ff1681565b6000600254905090565b60008061057b611261565b9050610588858285611434565b6105938585856114c0565b60019150509392505050565b60006012905090565b6000806105b3611261565b90506105d48185856105c585896111b4565b6105cf9190612313565b611269565b600191505092915050565b8060008111610623576040517f08c379a000000000000000000000000000000000000000000000000000000000815260040161061a906123b5565b60405180910390fd5b82600073ffffffffffffffffffffffffffffffffffffffff168173ffffffffffffffffffffffffffffffffffffffff161415610694576040517f08c379a000000000000000000000000000000000000000000000000000000000815260040161068b90612421565b60405180910390fd5b60648310156106d8576040517f08c379a00000000000000000000000000000000000000000000000000000000081526004016106cf906124b3565b60405180910390fd5b60006106e38561078e565b610700576106fb60328561173890919063ffffffff16565b610715565b61071460198561173890919063ffffffff16565b5b9050600660009054906101000a900460ff1660ff1681111561074757600660009054906101000a900460ff1660ff1690505b61078785826040518060400160405280600c81526020017f7370656e64416e644561726e000000000000000000000000000000000000000081525061174e565b5050505050565b6000600660019054906101000a900460ff1660ff166107ac8361089d565b10159050919050565b60006107e2600660029054906101000a900473ffffffffffffffffffffffffffffffffffffffff1661089d565b905090565b80600073ffffffffffffffffffffffffffffffffffffffff168173ffffffffffffffffffffffffffffffffffffffff161415610858576040517f08c379a000000000000000000000000000000000000000000000000000000000815260040161084f90612421565b60405180910390fd5b6108998260646040518060400160405280600981526020017f526566657272616c73000000000000000000000000000000000000000000000081525061174e565b5050565b60008060008373ffffffffffffffffffffffffffffffffffffffff1673ffffffffffffffffffffffffffffffffffffffff168152602001908152602001600020549050919050565b600660029054906101000a900473ffffffffffffffffffffffffffffffffffffffff1673ffffffffffffffffffffffffffffffffffffffff163373ffffffffffffffffffffffffffffffffffffffff1614610975576040517f08c379a000000000000000000000000000000000000000000000000000000000815260040161096c90612545565b60405180910390fd5b80600073ffffffffffffffffffffffffffffffffffffffff168173ffffffffffffffffffffffffffffffffffffffff1614156109e6576040517f08c379a00000000000000000000000000000000000000000000000000000000081526004016109dd90612421565b60405180910390fd5b610a278260646040518060400160405280600b81526020017f536f6369616c4d6564696100000000000000000000000000000000000000000081525061174e565b5050565b60606007805480602002602001604051908101604052809291908181526020016000905b82821015610bd357838290600052602060002090600502016040518060a00160405290816000820160009054906101000a900473ffffffffffffffffffffffffffffffffffffffff1673ffffffffffffffffffffffffffffffffffffffff1673ffffffffffffffffffffffffffffffffffffffff1681526020016001820160009054906101000a900473ffffffffffffffffffffffffffffffffffffffff1673ffffffffffffffffffffffffffffffffffffffff1673ffffffffffffffffffffffffffffffffffffffff1681526020016002820154815260200160038201548152602001600482018054610b42906122b2565b80601f0160208091040260200160405190810160405280929190818152602001828054610b6e906122b2565b8015610bbb5780601f10610b9057610100808354040283529160200191610bbb565b820191906000526020600020905b815481529060010190602001808311610b9e57829003601f168201915b50505050508152505081526020019060010190610a4f565b50505050905090565b606060048054610beb906122b2565b80601f0160208091040260200160405190810160405280929190818152602001828054610c17906122b2565b8015610c645780601f10610c3957610100808354040283529160200191610c64565b820191906000526020600020905b815481529060010190602001808311610c4757829003601f168201915b5050505050905090565b600080610c79611261565b90506000610c8782866111b4565b905083811015610ccc576040517f08c379a0000000000000000000000000000000000000000000000000000000008152600401610cc3906125d7565b60405180910390fd5b610cd98286868403611269565b60019250505092915050565b600080610cf0611261565b9050610cfd8185856114c0565b600191505092915050565b8060008111610d4c576040517f08c379a0000000000000000000000000000000000000000000000000000000008152600401610d43906123b5565b60405180910390fd5b82600073ffffffffffffffffffffffffffffffffffffffff168173ffffffffffffffffffffffffffffffffffffffff161415610dbd576040517f08c379a0000000000000000000000000000000000000000000000000000000008152600401610db490612421565b60405180910390fd5b600060c890506000610dd9600a8661173890919063ffffffff16565b905081811115610de7578190505b610df08661089d565b811115610e0357610e008661089d565b90505b610e0d86826119da565b610e39600660029054906101000a900473ffffffffffffffffffffffffffffffffffffffff1682611ba8565b600660029054906101000a900473ffffffffffffffffffffffffffffffffffffffff1673ffffffffffffffffffffffffffffffffffffffff168673ffffffffffffffffffffffffffffffffffffffff167fddf252ad1be2c89b69c2b068fc378daa952ba7f163c4a11628f55a4df523b3ef83604051610eb89190611fbc565b60405180910390a360076040518060a001604052808873ffffffffffffffffffffffffffffffffffffffff168152602001600660029054906101000a900473ffffffffffffffffffffffffffffffffffffffff1673ffffffffffffffffffffffffffffffffffffffff1681526020018381526020014281526020016040518060400160405280600581526020017f7370656e64000000000000000000000000000000000000000000000000000000815250815250908060018154018082558091505060019003906000526020600020906005020160009091909190915060008201518160000160006101000a81548173ffffffffffffffffffffffffffffffffffffffff021916908373ffffffffffffffffffffffffffffffffffffffff16021790555060208201518160010160006101000a81548173ffffffffffffffffffffffffffffffffffffffff021916908373ffffffffffffffffffffffffffffffffffffffff16021790555060408201518160020155606082015181600301556080820151816004019080519060200190611053929190611d09565b505050505050505050565b60006110693361089d565b905090565b600660019054906101000a900460ff1681565b600081600081116110c7576040517f08c379a00000000000000000000000000000000000000000000000000000000081526004016110be906123b5565b60405180910390fd5b83600073ffffffffffffffffffffffffffffffffffffffff168173ffffffffffffffffffffffffffffffffffffffff161415611138576040517f08c379a000000000000000000000000000000000000000000000000000000000815260040161112f90612421565b60405180910390fd5b6000806111448761089d565b141561115357809350506111ac565b600060c89050600061116f600a8861173890919063ffffffff16565b90508181111561117d578192505b81811015611189578092505b6111928861089d565b8111156111a5576111a28861089d565b92505b5050809350505b505092915050565b6000600160008473ffffffffffffffffffffffffffffffffffffffff1673ffffffffffffffffffffffffffffffffffffffff16815260200190815260200160002060008373ffffffffffffffffffffffffffffffffffffffff1673ffffffffffffffffffffffffffffffffffffffff16815260200190815260200160002054905092915050565b600660029054906101000a900473ffffffffffffffffffffffffffffffffffffffff1681565b600033905090565b600073ffffffffffffffffffffffffffffffffffffffff168373ffffffffffffffffffffffffffffffffffffffff1614156112d9576040517f08c379a00000000000000000000000000000000000000000000000000000000081526004016112d090612669565b60405180910390fd5b600073ffffffffffffffffffffffffffffffffffffffff168273ffffffffffffffffffffffffffffffffffffffff161415611349576040517f08c379a0000000000000000000000000000000000000000000000000000000008152600401611340906126fb565b60405180910390fd5b80600160008573ffffffffffffffffffffffffffffffffffffffff1673ffffffffffffffffffffffffffffffffffffffff16815260200190815260200160002060008473ffffffffffffffffffffffffffffffffffffffff1673ffffffffffffffffffffffffffffffffffffffff168152602001908152602001600020819055508173ffffffffffffffffffffffffffffffffffffffff168373ffffffffffffffffffffffffffffffffffffffff167f8c5be1e5ebec7d5bd14f71427d1e84f3dd0314c0f7b2291e5b200ac8c7c3b925836040516114279190611fbc565b60405180910390a3505050565b600061144084846111b4565b90507fffffffffffffffffffffffffffffffffffffffffffffffffffffffffffffffff81146114ba57818110156114ac576040517f08c379a00000000000000000000000000000000000000000000000000000000081526004016114a390612767565b60405180910390fd5b6114b98484848403611269565b5b50505050565b600073ffffffffffffffffffffffffffffffffffffffff168373ffffffffffffffffffffffffffffffffffffffff161415611530576040517f08c379a0000000000000000000000000000000000000000000000000000000008152600401611527906127f9565b60405180910390fd5b600073ffffffffffffffffffffffffffffffffffffffff168273ffffffffffffffffffffffffffffffffffffffff1614156115a0576040517f08c379a00000000000000000000000000000000000000000000000000000000081526004016115979061288b565b60405180910390fd5b6115ab838383611cff565b60008060008573ffffffffffffffffffffffffffffffffffffffff1673ffffffffffffffffffffffffffffffffffffffff16815260200190815260200160002054905081811015611631576040517f08c379a00000000000000000000000000000000000000000000000000000000081526004016116289061291d565b60405180910390fd5b8181036000808673ffffffffffffffffffffffffffffffffffffffff1673ffffffffffffffffffffffffffffffffffffffff16815260200190815260200160002081905550816000808573ffffffffffffffffffffffffffffffffffffffff1673ffffffffffffffffffffffffffffffffffffffff168152602001908152602001600020600082825401925050819055508273ffffffffffffffffffffffffffffffffffffffff168473ffffffffffffffffffffffffffffffffffffffff167fddf252ad1be2c89b69c2b068fc378daa952ba7f163c4a11628f55a4df523b3ef8460405161171f9190611fbc565b60405180910390a3611732848484611d04565b50505050565b60008183611746919061296c565b905092915050565b82600073ffffffffffffffffffffffffffffffffffffffff168173ffffffffffffffffffffffffffffffffffffffff1614156117bf576040517f08c379a00000000000000000000000000000000000000000000000000000000081526004016117b690612421565b60405180910390fd5b6117ec600660029054906101000a900473ffffffffffffffffffffffffffffffffffffffff1685856114c0565b60076040518060a00160405280600660029054906101000a900473ffffffffffffffffffffffffffffffffffffffff1673ffffffffffffffffffffffffffffffffffffffff1681526020018673ffffffffffffffffffffffffffffffffffffffff16815260200185815260200142815260200184815250908060018154018082558091505060019003906000526020600020906005020160009091909190915060008201518160000160006101000a81548173ffffffffffffffffffffffffffffffffffffffff021916908373ffffffffffffffffffffffffffffffffffffffff16021790555060208201518160010160006101000a81548173ffffffffffffffffffffffffffffffffffffffff021916908373ffffffffffffffffffffffffffffffffffffffff1602179055506040820151816002015560608201518160030155608082015181600401908051906020019061194a929190611d09565b5050508373ffffffffffffffffffffffffffffffffffffffff16600660029054906101000a900473ffffffffffffffffffffffffffffffffffffffff1673ffffffffffffffffffffffffffffffffffffffff167fddf252ad1be2c89b69c2b068fc378daa952ba7f163c4a11628f55a4df523b3ef856040516119cc9190611fbc565b60405180910390a350505050565b600073ffffffffffffffffffffffffffffffffffffffff168273ffffffffffffffffffffffffffffffffffffffff161415611a4a576040517f08c379a0000000000000000000000000000000000000000000000000000000008152600401611a4190612a0f565b60405180910390fd5b611a5682600083611cff565b60008060008473ffffffffffffffffffffffffffffffffffffffff1673ffffffffffffffffffffffffffffffffffffffff16815260200190815260200160002054905081811015611adc576040517f08c379a0000000000000000000000000000000000000000000000000000000008152600401611ad390612aa1565b60405180910390fd5b8181036000808573ffffffffffffffffffffffffffffffffffffffff1673ffffffffffffffffffffffffffffffffffffffff1681526020019081526020016000208190555081600260008282540392505081905550600073ffffffffffffffffffffffffffffffffffffffff168373ffffffffffffffffffffffffffffffffffffffff167fddf252ad1be2c89b69c2b068fc378daa952ba7f163c4a11628f55a4df523b3ef84604051611b8f9190611fbc565b60405180910390a3611ba383600084611d04565b505050565b600073ffffffffffffffffffffffffffffffffffffffff168273ffffffffffffffffffffffffffffffffffffffff161415611c18576040517f08c379a0000000000000000000000000000000000000000000000000000000008152600401611c0f90612b0d565b60405180910390fd5b611c2460008383611cff565b8060026000828254611c369190612313565b92505081905550806000808473ffffffffffffffffffffffffffffffffffffffff1673ffffffffffffffffffffffffffffffffffffffff168152602001908152602001600020600082825401925050819055508173ffffffffffffffffffffffffffffffffffffffff16600073ffffffffffffffffffffffffffffffffffffffff167fddf252ad1be2c89b69c2b068fc378daa952ba7f163c4a11628f55a4df523b3ef83604051611ce79190611fbc565b60405180910390a3611cfb60008383611d04565b5050565b505050565b505050565b828054611d15906122b2565b90600052602060002090601f016020900481019282611d375760008555611d7e565b82601f10611d5057805160ff1916838001178555611d7e565b82800160010185558215611d7e579182015b82811115611d7d578251825591602001919060010190611d62565b5b509050611d8b9190611d8f565b5090565b5b80821115611da8576000816000905550600101611d90565b5090565b600081519050919050565b600082825260208201905092915050565b60005b83811015611de6578082015181840152602081019050611dcb565b83811115611df5576000848401525b50505050565b6000601f19601f8301169050919050565b6000611e1782611dac565b611e218185611db7565b9350611e31818560208601611dc8565b611e3a81611dfb565b840191505092915050565b60006020820190508181036000830152611e5f8184611e0c565b905092915050565b600080fd5b600073ffffffffffffffffffffffffffffffffffffffff82169050919050565b6000611e9782611e6c565b9050919050565b611ea781611e8c565b8114611eb257600080fd5b50565b600081359050611ec481611e9e565b92915050565b6000819050919050565b611edd81611eca565b8114611ee857600080fd5b50565b600081359050611efa81611ed4565b92915050565b60008060408385031215611f1757611f16611e67565b5b6000611f2585828601611eb5565b9250506020611f3685828601611eeb565b9150509250929050565b60008115159050919050565b611f5581611f40565b82525050565b6000602082019050611f706000830184611f4c565b92915050565b600060ff82169050919050565b611f8c81611f76565b82525050565b6000602082019050611fa76000830184611f83565b92915050565b611fb681611eca565b82525050565b6000602082019050611fd16000830184611fad565b92915050565b600080600060608486031215611ff057611fef611e67565b5b6000611ffe86828701611eb5565b935050602061200f86828701611eb5565b925050604061202086828701611eeb565b9150509250925092565b6000602082840312156120405761203f611e67565b5b600061204e84828501611eb5565b91505092915050565b600081519050919050565b600082825260208201905092915050565b6000819050602082019050919050565b61208c81611e8c565b82525050565b61209b81611eca565b82525050565b600082825260208201905092915050565b60006120bd82611dac565b6120c781856120a1565b93506120d7818560208601611dc8565b6120e081611dfb565b840191505092915050565b600060a0830160008301516121036000860182612083565b5060208301516121166020860182612083565b5060408301516121296040860182612092565b50606083015161213c6060860182612092565b506080830151848203608086015261215482826120b2565b9150508091505092915050565b600061216d83836120eb565b905092915050565b6000602082019050919050565b600061218d82612057565b6121978185612062565b9350836020820285016121a985612073565b8060005b858110156121e557848403895281516121c68582612161565b94506121d183612175565b925060208a019950506001810190506121ad565b50829750879550505050505092915050565b600060208201905081810360008301526122118184612182565b905092915050565b600080604083850312156122305761222f611e67565b5b600061223e85828601611eb5565b925050602061224f85828601611eb5565b9150509250929050565b61226281611e8c565b82525050565b600060208201905061227d6000830184612259565b92915050565b7f4e487b7100000000000000000000000000000000000000000000000000000000600052602260045260246000fd5b600060028204905060018216806122ca57607f821691505b602082108114156122de576122dd612283565b5b50919050565b7f4e487b7100000000000000000000000000000000000000000000000000000000600052601160045260246000fd5b600061231e82611eca565b915061232983611eca565b9250827fffffffffffffffffffffffffffffffffffffffffffffffffffffffffffffffff0382111561235e5761235d6122e4565b5b828201905092915050565b7f416d6f756e74206d7573742062652067726561746572207468616e2030000000600082015250565b600061239f601d83611db7565b91506123aa82612369565b602082019050919050565b600060208201905081810360008301526123ce81612392565b9050919050565b7f496e76616c696420726563697069656e74206164647265737300000000000000600082015250565b600061240b601983611db7565b9150612416826123d5565b602082019050919050565b6000602082019050818103600083015261243a816123fe565b9050919050565b7f4f7264657220616d6f756e74206d757374206265206174206c6561737420313060008201527f3000000000000000000000000000000000000000000000000000000000000000602082015250565b600061249d602183611db7565b91506124a882612441565b604082019050919050565b600060208201905081810360008301526124cc81612490565b9050919050565b7f4f6e6c792061646d696e2063616e2063616c6c20746869732066756e6374696f60008201527f6e00000000000000000000000000000000000000000000000000000000000000602082015250565b600061252f602183611db7565b915061253a826124d3565b604082019050919050565b6000602082019050818103600083015261255e81612522565b9050919050565b7f45524332303a2064656372656173656420616c6c6f77616e63652062656c6f7760008201527f207a65726f000000000000000000000000000000000000000000000000000000602082015250565b60006125c1602583611db7565b91506125cc82612565565b604082019050919050565b600060208201905081810360008301526125f0816125b4565b9050919050565b7f45524332303a20617070726f76652066726f6d20746865207a65726f2061646460008201527f7265737300000000000000000000000000000000000000000000000000000000602082015250565b6000612653602483611db7565b915061265e826125f7565b604082019050919050565b6000602082019050818103600083015261268281612646565b9050919050565b7f45524332303a20617070726f766520746f20746865207a65726f20616464726560008201527f7373000000000000000000000000000000000000000000000000000000000000602082015250565b60006126e5602283611db7565b91506126f082612689565b604082019050919050565b60006020820190508181036000830152612714816126d8565b9050919050565b7f45524332303a20696e73756666696369656e7420616c6c6f77616e6365000000600082015250565b6000612751601d83611db7565b915061275c8261271b565b602082019050919050565b6000602082019050818103600083015261278081612744565b9050919050565b7f45524332303a207472616e736665722066726f6d20746865207a65726f20616460008201527f6472657373000000000000000000000000000000000000000000000000000000602082015250565b60006127e3602583611db7565b91506127ee82612787565b604082019050919050565b60006020820190508181036000830152612812816127d6565b9050919050565b7f45524332303a207472616e7366657220746f20746865207a65726f206164647260008201527f6573730000000000000000000000000000000000000000000000000000000000602082015250565b6000612875602383611db7565b915061288082612819565b604082019050919050565b600060208201905081810360008301526128a481612868565b9050919050565b7f45524332303a207472616e7366657220616d6f756e742065786365656473206260008201527f616c616e63650000000000000000000000000000000000000000000000000000602082015250565b6000612907602683611db7565b9150612912826128ab565b604082019050919050565b60006020820190508181036000830152612936816128fa565b9050919050565b7f4e487b7100000000000000000000000000000000000000000000000000000000600052601260045260246000fd5b600061297782611eca565b915061298283611eca565b9250826129925761299161293d565b5b828204905092915050565b7f45524332303a206275726e2066726f6d20746865207a65726f2061646472657360008201527f7300000000000000000000000000000000000000000000000000000000000000602082015250565b60006129f9602183611db7565b9150612a048261299d565b604082019050919050565b60006020820190508181036000830152612a28816129ec565b9050919050565b7f45524332303a206275726e20616d6f756e7420657863656564732062616c616e60008201527f6365000000000000000000000000000000000000000000000000000000000000602082015250565b6000612a8b602283611db7565b9150612a9682612a2f565b604082019050919050565b60006020820190508181036000830152612aba81612a7e565b9050919050565b7f45524332303a206d696e7420746f20746865207a65726f206164647265737300600082015250565b6000612af7601f83611db7565b9150612b0282612ac1565b602082019050919050565b60006020820190508181036000830152612b2681612aea565b905091905056fea2646970667358221220743359450e420018970c8c87a31714644db54266211461043d516d6288b5248164736f6c63430008090033",
  "linkReferences": {},
  "deployedLinkReferences": {}
}